:100000000C9434000C943E000C943E000C943E0082
:100010000C943E000C943E000C943E000C943E0068
:100020000C943E000C943E000C943E000C943E0058
:100030000C943E000C943E000C943E000C943E0048
:100040000C943E000C943E000C943E000C943E0038
:100050000C943E000C943E000C943E000C943E0028
:100060000C943E000C943E0011241FBECFEFD8E04C
:10007000DEBFCDBF0E9440000C9457000C940000DE
:1000800080E284B980E094E121E041E085FD24270D
:10009000822F8295880F807E85B922E3000021504F
:1000A000E9F7915089F700C080E090E00895F89456
:0200B000FFCF80
:00000001FF
