:100000000C9434000C9449000C9449000C94490061
:100010000C9449000C9449000C9449000C9449003C
:100020000C9449000C9449000C9449000C9449002C
:100030000C9449000C9449000C9449000C9449001C
:100040000C9449000C9449000C9449000C9449000C
:100050000C9449000C9449000C9449000C944900FC
:100060000C9449000C94490011241FBECFEFD8E036
:10007000DEBFCDBF11E0A0E0B1E0E6EDF0E002C0F0
:1000800005900D92A231B107D9F70E944B000C9454
:1000900069000C940000CDB7DEB760970FB6F894F6
:1000A000DEBF0FBECDBF80E1E0E0F1E0DE011196E2
:1000B00001900D928A95E1F780E090E0FE01319683
:1000C000E80FF91F2081019680319105B9F70000F2
:0600D000FECFF894FFCF03
:1000D6000102030405060708090A0B0C0D0E0F1092
:0200E600000018
:00000001FF
