:100000000C9434000C943E000C943E000C943E0082
:100010000C943E000C943E000C943E000C943E0068
:100020000C943E000C943E000C943E000C943E0058
:100030000C943E000C943E000C943E000C943E0048
:100040000C943E000C943E000C943E000C943E0038
:100050000C943E000C943E000C943E000C943E0028
:100060000C943E000C943E0011241FBECFEFD8E04C
:10007000DEBFCDBF0E9440000C9472000C940000C3
:1000800000E111E122E133E144E155E166E177E18C
:1000900088E199E1AAE1BBE1CCE1DDE1EEE1FFE13C
:1000A00000E0002E01E0102E02E0202E03E0302EB2
:1000B00004E0402E05E0502E06E0602E07E0702E92
:1000C00008E0802E09E0902E0AE0A02E0BE0B02E72
:1000D0000CE0C02E0DE0D02E0EE0E02E0FE0F02E52
:0800E0000000FECFF894FFCFF1
:00000001FF
