:100000000C9434000C943E000C943E000C943E0082
:100010000C943E000C943E000C943E000C943E0068
:100020000C943E000C943E000C943E000C943E0058
:100030000C943E000C943E000C943E000C943E0048
:100040000C943E000C943E000C943E000C943E0038
:100050000C943E000C943E000C943E000C943E0028
:100060000C943E000C943E0011241FBECFEFD8E04C
:10007000DEBFCDBF0E9440000C9454000C940000E1
:1000800000E111E122E133E144E155E166E177E18C
:1000900088E199E1AAE1BBE1CCE1DDE1EEE1FFE13C
:0C00A00000C080E090E00895F894FFCFCD
:00000001FF
